:020000040000FA
:10000000B201D5289818181218162C08A0002D082F
:10001000A100A201A3010C280D2864008C1A23283A
:10002000FF30A207031CA307031CA007031CA107A2
:10003000031C0800220F0B28230F0C283230A200CB
:100040000030A3000D281A080314D02864000C1EE9
:10005000262899000314D028A700091109100910B7
:100060008316091109100910880183122708B21894
:1000700054283A30A100FC30B5203330A600672068
:100080001030A1006830B52067206430B4206720AC
:10009000383053200C305320013053200630532089
:1000A000B214270854283214A600321C6228091002
:1000B000033C031C672867200730A100D030B5201F
:1000C000031408003214FE3C0319D0280914091542
:1000D00026088800321009113230B42003140800B9
:1000E000A300360884008417340980058413A3080C
:1000F0000319D028F030A50022088038A400F03081
:10010000A5030319A5000319A3030319D028882800
:100110009820030120183408A21F3408A2080319EC
:100120000301A40F952880067C28962800007F28CC
:10013000210820040319A00A8030201AA1062019E2
:10014000A106A018A106210DA00DA10DD028A30184
:10015000A200FF30A207031CA307031CD028033012
:10016000A100DF30B520A928A101E83EA000A10927
:10017000FC30031CBE28A0070318BB28A00764009E
:10018000A10FBB282018C428A01CC8280000C8281C
:1001900008000038031DFF300405031DFF30D02880
:1001A0008313031383126400080083161930990027
:1001B00024309800831290309800831607309F00F7
:1001C000643083128A01A720FE308A012C2040303F
:1001D0008A012C2000308A012C201B308A012C201F
:1001E00004308A012C200A308A012C2011308A0127
:1001F0002C2000308A012C2000308A012C20FE3077
:100200008A012C2048308A012C2000308A012C20C1
:1002100004308A012C200E308A012C201F308A01E4
:100220002C2000308A012C2000308A012C20003044
:100230008A012C20FE308A012C2050308A012C208B
:1002400002308A012C2007308A012C200E308A01CE
:100250002C201C308A012C2008308A012C200030F0
:100260008A012C2000308A012C20FE308A012C20AB
:1002700001308A012C2083168601831254308A01B2
:10028000262061308A01262073308A0126203D30E5
:100290008A01262074308A0126202C308A012620EB
:1002A00020308A0126206B308A01262061308A01A5
:1002B000262067308A01262069308A012620743082
:1002C0008A0126203D308A0126206B308A012620B3
:1002D0002C308A01262020308A0126206D308A01A8
:1002E000262061308A0126206B308A012620613069
:1002F0008A01262073308A0126203D308A0126207B
:100300006D308A0126200D308A0126200A308A01AC
:10031000262031308A0126202E308A0126204F30B7
:100320008A01262079308A01262075308A0126200C
:100330006E308A01262063308A01262075308A01BA
:10034000262020308A01262064308A01262065304C
:100350008A01262067308A01262065308A012620FE
:1003600072308A01262069308A0126206E308A0187
:10037000262069308A01262020308A012620673015
:100380008A01262069308A01262072308A012620BF
:1003900073308A01262069308A0126206E308A0156
:1003A00026203A308A01262020308A0126200D306E
:1003B0008A0126200A308A0126208830AC001330BA
:1003C000AD008A0102208A150A12031C3528BC00E0
:1003D00064003C08743C8A110A1203193E2A640026
:1003E0003C086B3C8A110A1203193E2A64003C083F
:1003F0006D3C8A110A1203193E2A64308A012620B4
:1004000075308A0126207A308A01262067308A01D9
:10041000262075308A0126206E308A012620203061
:100420008A01262064308A01262065308A01262030
:1004300067308A01262065308A01262072308A01C1
:10044000262020308A01262067308A012620693044
:100450008A01262072308A0126200D308A0126204A
:100460000A308A0126200630B6000130B4003C3044
:10047000A2000A308A0170208A013E2962308A0176
:10048000262069308A01262072308A0126206930B0
:100490008A0126206E308A01262063308A012620B8
:1004A00069308A01262020308A0126206F308A0197
:1004B000262079308A01262075308A0126206E3068
:1004C0008A01262063308A01262075308A01262081
:1004D00020308A01262067308A01262069308A016F
:1004E000262072308A01262064308A012620693055
:1004F0008A01262020308A01262069308A012620A0
:100500006B308A01262069308A0126206E308A01EC
:10051000262063308A01262069308A012620203077
:100520008A0126206F308A01262079308A01262010
:1005300075308A0126206E308A01262063308A01B8
:10054000262075308A01262020308A01262062303C
:100550008A01262065308A0126206B308A012620F8
:100560006C308A01262065308A0126206E308A018F
:10057000262069308A01262079308A0126206F30B2
:100580008A01262072308A0126200D308A01262019
:100590000A308A01262032308A0126202E308A0134
:1005A00026206F308A01262079308A012620753076
:1005B0008A0126206E308A01262063308A01262097
:1005C00075308A01262020308A01262064308A0175
:1005D000262065308A01262067308A012620653072
:1005E0008A01262072308A01262020308A012620A6
:1005F00067308A01262069308A01262072308A01FC
:10060000262073308A01262069308A0126206E3028
:100610008A0126203A308A01262020308A012620AD
:100620000D308A0126200A308A0126208830AC004D
:100630001330AD008A0102208A150A12031C6D28AE
:10064000BD0064003D08743C8A110A1203196E2B28
:1006500064003D086B3C8A110A1203196E2B64007A
:100660003D086D3C8A110A1203196E2B64308A0111
:10067000262075308A0126207A308A0126206730AC
:100680008A01262075308A0126206E308A012620B4
:1006900020308A01262064308A01262065308A01B4
:1006A000262067308A01262065308A012620723094
:1006B0008A01262020308A01262067308A012620E0
:1006C00069308A01262072308A0126200D308A0185
:1006D00026200A308A0126208A01CB2A3C086D3C5C
:1006E000031DFF30FF3AB8003D086D3C031DFF308D
:1006F000FF3ABA00380884003A088A01C920BA00D3
:10070000BB0064003A083B048A110A120319F72B54
:10071000FE308A012C2001308A012C2000308A0111
:100720002C2020308A012C2000308A012C202030FF
:100730008A012C2062308A012C2069308A012C2009
:1007400072308A012C2020308A012C2073308A01DB
:100750002C2065308A012C2079308A012C20203011
:100760008A012C2079308A012C2061308A012C20CA
:1007700070308A012C2061308A012C206D308A0172
:100780002C2061308A012C207A308A012C20FE3006
:100790008A012C20C0308A012C2062308A012C2052
:1007A00065308A012C2072308A012C2061308A0148
:1007B0002C2062308A012C2065308A012C20723076
:1007C0008A012C2065308A012C2020308A012C20BF
:1007D0006B308A012C2061308A012C206C308A0118
:1007E0002C2064308A012C2069308A012C203C089E
:1007F0006D3C031DFF30FF3AB8003D08743C031DFB
:10080000FF30FF3ABA00380884003A088A01C9204C
:10081000BA00BB0064003A083B048A110A120319AB
:10082000772CFE308A012C2001308A012C200130E7
:100830008A012C2020308A012C2000308A012C20B3
:1008400020308A012C206B308A012C2069308A01EB
:100850002C2072308A012C2061308A012C207230C9
:100860008A012C20FE308A012C20C0308A012C20E5
:1008700069308A012C206B308A012C2069308A0172
:100880002C206E308A012C2063308A012C206930A4
:100890008A012C2020308A012C206F308A012C20E4
:1008A00079308A012C2075308A012C206E308A0123
:1008B0002C2063308A012C2075308A012C202030B6
:1008C0008A012C206B308A012C2061308A012C2077
:1008D0007A308A012C2061308A012C206E308A0106
:1008E0002C2064308A012C2069308A012C203C089D
:1008F0006D3C031DFF30FF3AB8003D086B3C031D03
:10090000FF30FF3ABA00380884003A088A01C9204B
:10091000BA00BB0064003A083B048A110A120319AA
:10092000FA2CFE308A012C2001308A012C20003064
:100930008A012C2020308A012C2002308A012C20B0
:1009400020308A012C206B308A012C2065308A01EE
:100950002C2073308A012C2065308A012C207230C3
:100960008A012C20FE308A012C20C0308A012C20E4
:1009700062308A012C2069308A012C2072308A0171
:100980002C2069308A012C206E308A012C206330A3
:100990008A012C2069308A012C2020308A012C20E9
:1009A0006F308A012C2079308A012C2075308A0121
:1009B0002C206E308A012C2063308A012C20753067
:1009C0008A012C2020308A012C206B308A012C20B7
:1009D00061308A012C207A308A012C2061308A0112
:1009E0002C206E308A012C2064308A012C20693042
:1009F0008A012C203C086B3C031DFF30FF3AB800F5
:100A00003D086B3C031DFF30FF3ABA0038088400F4
:100A10003A088A01C920BA00BB0064003A083B04C6
:100A20008A110A1203199B2DFE308A012C200130F5
:100A30008A012C2002308A012C2020308A012C20AF
:100A400002308A012C2020308A012C2062308A0159
:100A50002C2069308A012C2072308A012C20203011
:100A60008A012C2073308A012C2065308A012C20C9
:100A700079308A012C2020308A012C2079308A019B
:100A80002C2061308A012C2070308A012C206130AA
:100A90008A012C206D308A012C2061308A012C20A3
:100AA0007A308A012C20FE308A012C20C0308A0145
:100AB0002C2062308A012C2069308A012C2072306F
:100AC0008A012C2069308A012C206E308A012C206A
:100AD00063308A012C2069308A012C2020308A0161
:100AE0002C206F308A012C2079308A012C2075301F
:100AF0008A012C206E308A012C2063308A012C2040
:100B000075308A012C2020308A012C206B308A011C
:100B10002C2061308A012C207A308A012C2061300F
:100B20008A012C206E308A012C2064308A012C200E
:100B300069308A012C203C086B3C031DFF30FF3AD2
:100B4000B8003D08743C031DFF30FF3ABA00380876
:100B500084003A088A01C920BA00BB0064003A0840
:100B60003B048A110A120319212EFE308A012C201F
:100B700001308A012C2002308A012C2020308A0189
:100B80002C2001308A012C2020308A012C206B304F
:100B90008A012C2061308A012C2070308A012C209F
:100BA0006C308A012C2061308A012C2072308A013D
:100BB0002C20FE308A012C20C0308A012C2062308B
:100BC0008A012C2069308A012C2072308A012C2065
:100BD00069308A012C206E308A012C2063308A0112
:100BE0002C2069308A012C2020308A012C206F3083
:100BF0008A012C2079308A012C2075308A012C2022
:100C00006E308A012C2063308A012C2075308A01D5
:100C10002C2020308A012C206B308A012C2061305E
:100C20008A012C207A308A012C2061308A012C2004
:100C30006E308A012C2064308A012C2069308A01B0
:100C40002C203C086B3C031DFF30FF3AB8003D08E8
:100C50006D3C031DFF30FF3ABA00380884003A08A3
:100C60008A01C920BA00BB0064003A083B048A111B
:100C70000A120319A12EFE308A012C2001308A01AC
:100C80002C2000308A012C2020308A012C200230B8
:100C90008A012C2020308A012C206B308A012C20E4
:100CA00065308A012C2073308A012C2065308A013E
:100CB0002C2072308A012C20FE308A012C20C0307A
:100CC0008A012C2069308A012C206B308A012C206B
:100CD00069308A012C206E308A012C2063308A0111
:100CE0002C2069308A012C2020308A012C206F3082
:100CF0008A012C2079308A012C2075308A012C2021
:100D00006E308A012C2063308A012C2075308A01D4
:100D10002C2020308A012C206B308A012C2061305D
:100D20008A012C207A308A012C2061308A012C2003
:100D30006E308A012C2064308A012C2069308A01AF
:100D40002C203C08743C031DFF30FF3AB8003D08DE
:100D5000743C031DFF30FF3ABA00380884003A089B
:100D60008A01C920BA00BB0064003A083B048A111A
:100D70000A1203192A2FFE308A012C2001308A0121
:100D80002C2001308A012C2020308A012C200130B7
:100D90008A012C2020308A012C2062308A012C20EC
:100DA00069308A012C2072308A012C2020308A017F
:100DB0002C2073308A012C2065308A012C20793058
:100DC0008A012C2020308A012C2079308A012C20A5
:100DD00061308A012C2070308A012C2061308A0118
:100DE0002C206D308A012C2061308A012C207A3031
:100DF0008A012C20FE308A012C20C0308A012C2050
:100E000062308A012C2065308A012C2072308A01E0
:100E10002C2061308A012C2062308A012C20653020
:100E20008A012C2072308A012C2065308A012C2006
:100E300020308A012C206B308A012C2061308A01FD
:100E40002C206C308A012C2064308A012C206930DF
:100E50008A012C203C08743C031DFF30FF3AB80087
:100E60003D086B3C031DFF30FF3ABA003808840090
:100E70003A088A01C920BA00BB0064003A083B0462
:100E80008A110A120319B02FFE308A012C2001307A
:100E90008A012C2002308A012C2020308A012C204B
:100EA00001308A012C2020308A012C206B308A01ED
:100EB0002C2061308A012C2070308A012C206C306B
:100EC0008A012C2061308A012C2072308A012C206A
:100ED000FE308A012C20C0308A012C2062308A0129
:100EE0002C2069308A012C2072308A012C20693034
:100EF0008A012C206E308A012C2063308A012C203C
:100F000069308A012C2020308A012C206F308A0120
:100F10002C2079308A012C2075308A012C206E30EB
:100F20008A012C2063308A012C2075308A012C2004
:100F300020308A012C206B308A012C2061308A01FC
:100F40002C207A308A012C2061308A012C206E30CE
:100F50008A012C2064308A012C2069308A012C20DF
:100F60003C08743C031DFF30FF3AB8003D086D3C5F
:100F7000031DFF30FF3ABA00380884003A088A019E
:100F8000C920BA00BB0064003A083B048A150A1263
:100F900003193328FE308A012C2001308A012C20CD
:100FA00001308A012C2020308A012C2000308A0157
:100FB0002C2020308A012C206B308A012C206930B3
:100FC0008A012C2072308A012C2061308A012C2069
:100FD00072308A012C20FE308A012C20C0308A0118
:100FE0002C2062308A012C2069308A012C2072303A
:100FF0008A012C2069308A012C206E308A012C2035
:1010000063308A012C2069308A012C2020308A012B
:101010002C206F308A012C2079308A012C207530E9
:101020008A012C206E308A012C2063308A012C200A
:1010300075308A012C2020308A012C206B308A01E7
:101040002C2061308A012C207A308A012C206130DA
:101050008A012C206E308A012C2064308A012C20D9
:1010600069308A012C208A013E2944308A012620D9
:1010700075308A0126207A308A01262067308A015D
:10108000262075308A0126206E308A0126202030E5
:101090008A01262064308A01262065308A012620B4
:1010A00067308A01262065308A01262072308A0145
:1010B000262020308A01262067308A0126206930C8
:1010C0008A01262072308A0126200D308A012620CE
:1010D0000A308A0126208A013E2944308A012620CE
:1010E00075308A0126207A308A01262067308A01ED
:1010F000262075308A0126206E308A012620203075
:101100008A01262064308A01262065308A01262043
:1011100067308A01262065308A01262072308A01D4
:10112000262020308A01262067308A012620693057
:101130008A01262072308A0126200D308A0126205D
:0A1140000A308A0126208A01CB2A1A
:02400E00753FFC
:00000001FF
